:020000040800F2
:100000009844002091020008BDFC000851720008CD
:10001000B9FC0008852900083D1201080000000015
:100020000000000000000000000000009907010827
:10003000A52A00080000000065030108210E010840
:10004000AB020008AB020008AB020008AB020008DC
:10005000AB020008AB020008AB020008AB020008CC
:10006000AB020008AB020008AB020008812A0008BE
:10007000AB020008AB020008AB0200088D2A0008A2
:10008000AB020008AB020008AB020008AB0200089C
:10009000AB020008AB020008AB020008AB0200088C
:1000A000AB020008E90E0108AB020008AB02000831
:1000B000AB020008F50E0108AB020008AB02000815
:1000C000AB020008AB020008AB020008AB0200085C
:1000D00079040108AB02000831120108AB020008E4
:1000E000AB020008AB020008AB020008AB0200083C
:1000F000AB020008AB020008AB020008AB0200082C
:10010000AB020008AB020008AB020008AB0200081B
:10011000AB020008AB020008AB020008AB0200080B
:10012000AB020008AB020008AB020008AB020008FB
:10013000992A00080000000000000000AB0200083F
:10014000AB020008AB020008AB020008AB020008DB
:10015000AB020008AB020008AB020008AB020008CB
:10016000AB020008AB020008AB020008AB020008BB
:10017000AB020008AB020008000000000000000015
:10018000AB020008AB02000800F002F800F071F8C2
:1001900014A696E8000CB244B344DA4501D100F04D
:1001A00068F8BAE80F000FA696E83000A5EB040542
:1001B00004EB0607AAEB0704A7F101074FEA1515A0
:1001C0004FEA3414A4F10104AC4201D300F051F819
:1001D00013F0010F18BFFB1A43F0010300F001F800
:1001E000DBE718474C730B006C730B00103A24BF0D
:1001F00078C878C1FAD8520724BF30C830C144BF8C
:1002000004680C6070470000704700000023002461
:1002100000250026103A28BF78C1FBD8520728BF16
:1002200030C148BF0B60704766291AF0AB82642961
:1002300000F05881752900F05581782900F08E81F1
:10024000732900F03887002070471FB51AF08DFA27
:1002500000F0F6FF0400002000211AF0E3F9401C32
:100260006060002000211AF0F3F9E0601FBD10B5B6
:1002700010BD01F011F91146FFF7E7FF18F0E2FC9D
:1002800001F02FF903B4FFF7F2FF03BC12F09CF961
:100290000948804709480047FEE7FEE7FEE7FEE71A
:1002A000FEE7FEE7FEE7FEE7FEE7FEE70448054956
:1002B000054A064B70470000CD0E01088901000871
:1002C000983E00209844002098400020984000204C
:1002D000704753EA020C00F069802DE9F04B4FF0B3
:1002E0000006002B1FBFB3FA83F503FA05F424FAC6
:1002F00005F65E4012BF1643B2FA82F502FA05F423
:10030000C5F120051EBF22FA05FC44EA0C04203585
:1003100056EA044C4FEA144418BF641C4FF000081E
:100320004FF00009904271EB030C39D3002919BF3B
:10033000B1FA81F701FA07F6B0FA80F700FA07F68A
:10034000C7F120071EBF20FA07FC46EA0C0620373B
:10035000B6FBF4FCA7EB0507103F07F01F0BCBF132
:1003600020062CFA06F60CFA0BFB44BFB346002617
:10037000202FA4BF5E464FF0000B5BEA060C08BFBF
:100380004FF0010B19EB0B0948EB0608ABFB027CA5
:1003900006FB02CC0BFB03CCC01B71EB0C01C1E7CD
:1003A0000B46024641464846BDE8F08B13B508436C
:1003B00018BF4FF0FF300146AFF30080BDE81C408E
:1003C000704700000FB4044910B503AA029800F06A
:1003D00077FE10BC5DF814FB941100200FB41CB51F
:1003E000074B06AA7B4469460090059800F031FE51
:1003F0000020694600F040FE1CBC5DF814FB0000C4
:10040000910C00000FB41CB50C0007AA009007D097
:100410004142A14202D32044401E01E04FF0FF3090
:10042000074B7B4469460190069800F012FE0020BD
:10043000002C01D0009908701CBC5DF814FB000072
:100440005D0C000070B5044685690068C10601D5E1
:10045000302600E02026C00707D070BDD4E9012176
:1004600030469047206A401C20626D1EF6D570BD54
:1004700070B5044685690078C00707D170BDD4E91E
:10048000012120209047206A401C20626D1EF6D575
:1004900070BD70B50C460546012A05D02878800647
:1004A00000D5EA69002302E0012305E05B1C9342CA
:1004B00002D2E05C0028F9D1A869E618C01AA86148
:1004C000286A184428622846FFF7BCFF04E0D5E9F3
:1004D000012114F8010B9047B442F8D32846FFF7E6
:1004E000C7FF70BD2DE9F04106460024106875294C
:1004F000314616A510D0AFF30080002802DA404242
:1005000013A507E031688A0701D512A502E0490763
:1005100004D511A5012401E0AFF3008000210A22D7
:1005200006F1240709E0B0FBF2FCB0FBF2F302FB9A
:100530001C00303078541846491C0028F3D123465B
:100540002A463046BDE8F04100F017BB000000002D
:100550002D0000002B0000002000000070B50446B4
:100560000D4621461068AFF300802188090502D5A9
:100570000F4A7A4402E00E4A7A440E32002104F116
:10058000240305E000F00F060009965D5E54491C47
:100590000028F7D120780023000704D5702D02D061
:1005A00009B1022311322046BDE8704000F0E5BADF
:1005B00012A201002DE9F05F894604464FF0000ABF
:1005C000DFF874B1FB44C0F820A02046E1688847FA
:1005D000002874D0252806D0D4E901219047206A4C
:1005E000401C2062F1E700265F462046E16888470C
:1005F0002028054607DB312D05D2781910F8200C8C
:1006000008B10643F1E7B00701D526F00406C4F8A7
:100610001CA00027C4F818A02A2D09D0284619F0DC
:10062000F9FF38B304EB8708303DC8F8185019E0DB
:1006300059F8041B204604EB87029161E168884762
:10064000012F054618D1E069002820DA26F020069F
:100650001DE0D8F8180000EB800005EB40003038B2
:10066000C8F818002046E1688847054619F0D2FF0F
:100670000028EED1012F0AD02E2D08D12046E168A6
:1006800088477F1C0546022F46F02006C4DBA06980
:10069000002803DA404246F00106A061F00701D0CD
:1006A00026F010066C2D0BD0682D09D04C2D39D0BA
:1006B0006A2D35D0742D35D07A2D33D016E038E040
:1006C000E1682F4620468847B842054609D16C2F7D
:1006D00026D04FF48060E1680643204688470546EF
:1006E00004E06C2F1AD04FF4807006430DB3A5F1CF
:1006F0004100192802D8203546F400664A462946AA
:10070000204626604E46FFF78FFD80B101280BD0B2
:10071000F61D26F0070000F1080956E74020E4E73F
:100720008020D8E70020D6E706F104094DE72846E7
:1007300052E7206ABDE8F09FE8A1010070B50646C7
:1007400000F00CFA0468054630460A22002100F049
:1007500018FD2C6070BD2DE9F05F93460F46804672
:100760000446002600F0FAF9D0F80090824614F80A
:10077000015B2DB100F0EAF90068405DC007F6D1D9
:100780002B2D02D02D2D1AD0641E0021CAF8001086
:100790005A463946204600F0A5FC014627B1386884
:1007A000A04201D1C7F80080DAF80000022809D081
:1007B000CAF80090700505D54842BDE8F09F46F4A0
:1007C0008066E2E70846F8E710B5044603E012F059
:1007D0007BFB401C09D014F8010B05490028F6D119
:1007E000BDE810400A2012F06FBB4FF0FF3010BD83
:1007F00094110020014A00F0FDBC00000000002020
:10080000401ECAB210F8011F8A4202D00029F9D155
:100810000020704740EA010310B59B070FD1042A5E
:100820000DD310C808C9121F9C42F8D020BA19BABB
:10083000884201D9012010BD4FF0FF3010BD1AB120
:10084000D30703D0521C07E0002010BD10F8013B75
:1008500011F8014B1B1B07D110F8013B11F8014B9C
:100860001B1B01D1921EF1D1184610BD40EA0103B5
:10087000024630B59B0710D14FF0013400E008C2AA
:1008800008C91D1B9D4315EAC41FF8D013F0FF01D2
:1008900002F8011B0DD01B0AF8E711F8013B002BF1
:1008A00002F8013B05D011F8013B002B02F8013B97
:1008B000F3D130BD10B5431C02E010F8011B71B13B
:1008C0008107FAD14FF0013202C88C1A8C4314EA26
:1008D000C211F9D0C01A0A0603D0C01E10BDC01A3A
:1008E00010BD0A0401D0801E10BD0902FCD0401EBC
:1008F00010BD40EA010370B59B072ED14FF00136C1
:10090000042A2AD308C810C99D1B9D43121F15EA4B
:10091000C61517D0D8B2E1B2401A50EA056110D11D
:1009200098B2A1B2401A50EA05410AD123F07F40A3
:1009300024F07F41401A50EA052102D1180EA0EBA5
:10094000146070BDA342DBD018BA21BA884201D925
:10095000012070BD4FF0FF3070BD0AB9002070BD9E
:1009600010F8013B11F8014B63B1A3420AD1521EAA
:1009700008D010F8013B11F8014B1BB1A34201D183
:10098000521EEDD1181B70BD032A40F2308010F0CA
:10099000030C00F0158011F8013BBCF1020F62441A
:1009A00098BF11F801CB00F8013B38BF11F8013BAB
:1009B000A2F1040298BF00F801CB38BF00F8013B58
:1009C00011F0030300F02580083AC0F0088051F8C8
:1009D000043B083A51F804CBA0E80810F5E7121DD3
:1009E0005CBF51F8043B40F8043BAFF30080D207F2
:1009F00024BF11F8013B11F801CB48BF11F8012BBE
:100A000024BF00F8013B00F801CB48BF00F8012BE0
:100A1000704710B5203AC0F00B80B1E81850A0E83C
:100A20001850B1E81850A0E81850203ABFF4F5AFBC
:100A30005FEA027C24BFB1E81850A0E8185044BF18
:100A400018C918C0BDE810405FEA827C24BF51F885
:100A5000043B40F8043B08BF7047D20728BF31F879
:100A6000023B48BF11F8012B28BF20F8023B48BFCA
:100A700000F8012B70474FF0000200B51346944672
:100A80009646203922BFA0E80C50A0E80C50B1F1E6
:100A90002001BFF4F7AF090728BFA0E80C5048BFFA
:100AA0000CC05DF804EB890028BF40F8042B08BF98
:100AB000704748BF20F8022B11F0804F18BF00F894
:100AC000012B70470000000030B44FF0013C50F89B
:100AD000042B51F8043BCCFA52F4D51A20D1FCB9BE
:100AE00050F8042B51F8043BCCFA52F4D51A17D124
:100AF000B4B950F8042B51F8043BCCFA52F4D51A8F
:100B00000ED16CB950F8042B51F8043BCCFA52F4D6
:100B1000D51A05D1002CDAD030BC4FF00000704758
:100B200029BAB1FA81F111F01801D1F12000844005
:100B3000F2D1CA40CB4012F0FF0213F0FF0330BCE9
:100B4000D01A7047704770477047704710B500F073
:100B500077FB001D10BD00BFCD9A01000048704713
:100B6000A800002010B5FFF7F9FF006810BD10B510
:100B70000446FFF7F3FF046010BD2DE9F0470D4672
:100B800099469246044600F124080168880604D577
:100B9000E06921F01001216000E00120A84201DDA0
:100BA000471B00E00027A1697A1902EB0900081A27
:100BB000A0612078C00602D42046FFF743FC00263F
:100BC00008E0D4E901211AF806009047206A401C89
:100BD000761C20624E45F4DB2078C0060AD52046FC
:100BE000FFF730FC06E0D4E9012130209047206A6D
:100BF000401C2062381EA7F10107F4DC07E0D4E9AD
:100C0000012118F805009047206A401C2062281E28
:100C1000A5F10105F3DC2046FFF72AFC2078000649
:100C200002D50220BDE8F0870120FBE72DE9FF4F48
:100C30000C461E464FF0FF378BB0D2E90001DDF8BD
:100C400060800A908A46C1F30A5505B93D460021E5
:100C500008464FF00000BAF1000F00F4400005DA3A
:100C600000EB80004FF4400101EA50004FEA905938
:100C7000B9F1010F00DDB9460A9850EA4A000ED0DA
:100C800044F61050A5F2FF3545432F14B8F1000F7C
:100C90001ED07542291E1EDDC9F100021CE0B8F10C
:100CA000010F4FF0000001D0302103E0F24305E0D6
:100CB0002154401CB042FBDB30460022002121546D
:100CC0000B99C1F80880C1E900200FB0BDE8F08F92
:100CD000BD1B6D1CDEE74A4600DA694206A800F03B
:100CE00047FB06AB93E8070003AB83E807005046D9
:100CF0000A9918F015FF8DE80700A0F500501F387D
:100D000000900398002D0ADD42F21F014A46084474
:100D1000002303A90390684619F07EF909E0A0F5C5
:100D200000504A461F38002303A90390684619F073
:100D300088F98DE807000004000C03D04FF0FF3065
:100D4000410800E01046B8F1000F03D000220092E5
:100D500015461EE0751E05D400F076FA3032625555
:100D60006D1EF9D5B3460122084302D000227F1C34
:100D700004E02078302801D100227F1E002A099744
:100D800084D01DE0112D07DA00F05EFA3032625592
:100D90006D1C50EA0102F5D1084302D00098C8B199
:100DA0000EE00021681E05E0235C625C635422545F
:100DB000401E491C8142F7DBAB46A81B401E099030
:100DC000002004F80B000B98099AC0F80880C0E9CD
:100DD000002B7AE711264FF0000857E72DE9F04F76
:100DE00088460446D21D22F0070191B0D1E90001E6
:100DF000CDE90A0119F05CFA02460B98C00F01D048
:100E00002D2007E02068810701D52B2002E020215A
:100E100001EAC000032A099001D0072A05DB034636
:100E20004146204600F056FA0BE12078800601D5B5
:100E3000E06900E00620B8F1650F814606D0B8F100
:100E4000660F18D0B8F1670F70D131E00020B9F10A
:100E5000110F009001DB112301E009F101030AAA3F
:100E600001A90CA8FFF7E2FEDDE90C70002609F1EC
:100E70000105834647E001204B4600904FF00047B4
:100E80000AAA01A90CA8FFF7D1FEDDE90DB00C9963
:100E90005D46002610B909F101000D18B9EB0500F7
:100EA00003D4C0F1FF3609F10105A5EB09002BE0E1
:100EB000B9F1010F01DA4FF001090020B9F1110F6A
:100EC0000090484601DD112300E003460AAA01A96B
:100ED0000CA8FFF7ABFEDDE90C704D4600268346FB
:100EE000207800070AD4AB4500DA5D4601A8012D41
:100EF00004DD411911F8011C302907D04F4502DAF1
:100F000017F1040F04DA012082460FE06D1EEEE7B0
:100F1000002F02DCED1B3E4403E0781CA84200DDFC
:100F20007D1CB81B00F1010A4FF000472078000734
:100F300003D4AA4501DB4FF0FF3A0021B7F1004F7F
:100F40000DF143088DF8431024D002202B23002FED
:100F500001DA7F422D230A21021EA0F1010000DCEC
:100F60005FB197FBF1FC97FBF1F201FB1C7C17468C
:100F70000CF1300C08F801CDEEE7A8F10100037088
:100F80002188090501D5452100E06521A0F101086E
:100F900000F8011C09980FA9A1EB0807FF1D00B17B
:100FA0000120411901EBEA70A1693844081A401E7A
:100FB000A0612078C00602D42046FFF743FA0998C2
:100FC00028B1D4E901219047206A401C2062207892
:100FD000C00622D52046FFF735FA1EE0002E04DBBE
:100FE000B34502DD01A8805D00E03020D4E9012195
:100FF0009047206A401C2062761CAAF101005FEA3B
:10100000000A0AD100F01CF9C0680168405CD4E90C
:1010100001219047206A401C2062281EA5F101058D
:10102000DCDC07E0D4E9012118F8010B9047206AC5
:10103000401C2062381EA7F10107F3DC2046FFF7B1
:1010400017FA032011B041E601694A1C02610878D1
:10105000704700B58FB0CDE90131002105910549F8
:101060007944CDE9031011466846FFF7A3FA0FB0A3
:1010700000BD0000E5FFFFFF0A6802F8010B0A60EF
:101080007047D1E900239A4202D2531C0B601070C2
:10109000704710B5436913B1AFF3008001E0FFF76B
:1010A000F8F9012010BD127800F124010A70002225
:1010B0004A700122EDE711684FF0FF32E9E70000C6
:1010C000074B70B50D467B44FFF7C3FF0446284627
:1010D00000F0C0F910B14FF0FF3070BD204670BD78
:1010E000FF1D01002DE9F05F824615468B46002763
:1010F0000AF10104B9460078302801D09DB113E00F
:1011000014F8010B0127782803D0582801D045B1E5
:101110000AE00DB1102D07D1002714F8010B10259E
:1011200002E0082500E00A250026B0460EE005FB97
:10113000080005FB06F101271FFA80F801EB1046B5
:10114000B6F5803F00D3B94614F8010B294600F0EC
:1011500001F90028EBDABBF1000F05D00FB1641ED6
:1011600000E05446CBF80040B9F1000F06D0FFF77D
:10117000F5FC02210160C81EBDE8F09F48EA064068
:10118000FAE72DE9F04791460F46804604460026CF
:1011900014F8015B2DB1FFF7D9FC0068405DC00772
:1011A000F6D12B2D02D02D2D18D0641E4A4639467B
:1011B0002046FFF797FF27B13968A14201D1C7F850
:1011C00000804FF0020471050BD54042002803DD7A
:1011D000FFF7C4FC0460A007BDE8F08746F4806612
:1011E000E4E70028F8DAFFF7B9FC04606FF000408C
:1011F000F2E700002DE9F04115460E46040002D149
:101200002C6804B90BA4204600F038F90444207877
:1012100070B127463146384600F020F90444207862
:1012200010B1002004F8010B38462C60BDE8F081B5
:101230000027F9E70000000000487047A8000020E0
:1012400000487047C800002030B5B0F10A0271F1C3
:1012500000034FEA900E4EEA817EB0EB0E0061EB88
:1012600091014FEA101E4EEA017E10EB0E0041EB99
:1012700011114FEA102E4EEA016E10EB0E0041EBF9
:1012800011214FEA104E4EEA014E10EB0E0041EBD9
:101290001141401841F100014FEAD00040EA41708D
:1012A0004FEAD1014FEA810444EA907410EB8005C3
:1012B00044EB01046D1944EB0404521BA3414FF0AD
:1012C000000348BF0A3200D530BD401C41F1000187
:1012D00030BD00002DE9F0411F4604460326016899
:1012E000072A01F4006004DB08B116A505E016A585
:1012F00003E008B115A500E015A521F0100020605D
:10130000A069C01EA0610FB1401EA0612046FFF77A
:1013100099F84FB1D4E9012138469047206A401C22
:101320002062C01C206206E0206AFAE7D4E90121AD
:1013300015F8010B9047761EF8D22046FFF798F873
:10134000BDE8F0814E414E006E616E00494E460090
:10135000696E66003A2800D2303820F02002412A17
:1013600001D3A2F13700884201D34FF0FF3070471C
:101370002DE9F047814616468AB0354878440DC8B5
:101380008DE80D0032487844801C03AC0DC884E819
:101390000D0041F69B300844372190FBF1F290FBA1
:1013A000F1F5A5F1800501FB12041B3C02D5644256
:1013B000012000E00020DFF898A080460027FA44D2
:1013C000AAF1BE0A0EE0E0070AD03246684607EBF3
:1013D000470101230AEB810118F033FE8DE8070075
:1013E00064107F1C002CEED1194F7F44AE3F19E0F2
:1013F000E80715D007EB04100DF1180A90E80E006D
:101400008AE80E00C068F04201D19819089032466F
:10141000012306A903A818F014FE03AB83E8070014
:101420006D10641C002DE3D14FF001033246694674
:10143000B8F1000F03A802D018F0EEFD01E018F09B
:1014400000FEC9E90001C9F808200AB0BDE8F0872C
:10145000E0940100007B00F08000704730B5034647
:101460001D781DB10A4603E0AC4201D1181A30BD07
:1014700012F8014B002CF7D15B1CF1E730B50346A5
:101480001D783DB10A4612F8014B1CB1AC42FAD1AD
:101490005B1CF5E7181A30BD7546FFF7CDFEAE466A
:1014A00005006946534620F00700854618B020B570
:1014B000FEF7FCFEBDE820404FF000064FF00007AD
:1014C0004FF000084FF0000BAC46ACE8C009ACE8A8
:1014D000C009ACE8C009ACE8C00921F007018D469D
:1014E000704710B50446AFF300802046BDE81040B9
:1014F000FEF7C8BE2DE9F04F81B02DED028B92B002
:101500000446FFF7D7F9012830DBA11E002204E0D2
:10151000043803F8022C00F096830B185F780D2F27
:1015200001D00A2F25D102285A70C0F28C830F5C9B
:101530000D2F02D00A2F40F04D8102280A5400F0EE
:10154000828313F8017C0D2F02D00A2F40F078819E
:10155000042803F8012CC0F0768313F8027C0D2FC9
:10156000D6D00A2FD4D0033803E000BF002800F003
:101570006A8346F2C7710546C0F60B0120460A226F
:10158000FFF7B7F920B90FF614702946FEF71AFFD6
:101590000FF6F86120460622FFF7ABF9002800F0AD
:1015A00091800FF6F06120460422FFF7A2F900288F
:1015B00000F094800FF6747120460522FFF799F928
:1015C000002800F0D5800FF66C7120460422FFF74A
:1015D00090F9002800F036812078553804D16078E1
:1015E000493801D1A0783A38002800F041810FF63F
:1015F0004C7120460722FFF77CF9002800F05C813F
:101600000FF6407120460C22FFF773F9002800F016
:10161000DF820FF6407120460722FFF76AF90028A3
:1016200000F01E830FF6347120460D22FFF761F99A
:10163000002800F053830FF6347120460422FFF790
:1016400058F9002800F07E830FF628712046062204
:10165000FFF74FF9002800F049840FF67471204617
:101660000922FFF746F9002800F09E840FF66C71FE
:1016700020460422FFF73DF9002800F0C5840FF64C
:10168000647120460422FFF734F9002800F06E85CB
:1016900046F2D271C0F60B0120460522FFF729F968
:1016A000002800F03D850FF644712046FFF70CFA44
:1016B000002800F0358546F23C60C0F60B0021465C
:1016C00004E300BF40F21005C2F2000528780228AA
:1016D00010D146F28D60C0F60B0051E240F21000CE
:1016E000C2F200000078022876D146F2B260C0F65D
:1016F0000B0045E2A01DFFF721F80138B0FA80F099
:101700004FEA501246F2657046F21F74C0F60B00A5
:10171000C0F60B0408BF044640F21100C2F20000FC
:10172000027040F21200C2F20000027040F200406B
:10173000C4F202004FF480712A7003F049F9204688
:10174000FFF742F840F21400C2F2000000780128CE
:1017500040F07982287840F28011C2F200010978C5
:1017600012B0BDEC028B01B0BDE8F04F16F022B90B
:10177000601DFEF7E3FF012800F2658240F280144D
:10178000C2F200042070002846F2246046F2D872AB
:101790000FF68461C0F60B00C0F60B0208BF1146BD
:1017A000FEF710FE40F21400C2F20000007801289B
:1017B00040F0498240F21000C2F200000078217827
:1017C00016F0F8F840F2C410C2F200000088217848
:1017D0002DE000BF0138CCE6201DFEF7AFFF20EA68
:1017E000E07143F280026429A8BF642101EB81000B
:1017F000C2F2000240F2C4141368420046F2615083
:10180000C2F20004C0F60B0021805A631A64FEF78E
:10181000D9FD40F21400C2F200000078012840F027
:10182000128240F28011C2F200012088097812B0C1
:10183000BDEC028B01B0BDE8F04F09F023BD00BF45
:10184000023896E6201DFEF779FF002800F0868119
:1018500040F21400C2F20000012140F28312017034
:10186000C2F2000246F27570C0F60B00117087E1FB
:10187000E01CFEF763FF01460138032800F288816F
:1018800040F21400C2F200000522027040F2831000
:10189000C2F20000027040F20400C2F2000040F206
:1018A00082120170C2F20002012346F26860C0F6A3
:1018B0000B0013700AE200BFE01DFEF73FFF431E5E
:1018C00001460B2B00F2C68140F20F00C2F200006D
:1018D000017040F29C11C2F20001012008704AF62A
:1018E00078004AF6BC07C0F60100C0F60107C25CEA
:1018F0004AF6A400FD5C4AF6C807C0F60100C0F62F
:101900000107C15C4AF6B000FC5C4AF6D407C0F699
:101910000100C0F60107C05CFB5C40F20B06C2F29E
:101920000006337040F20806C2F20006327040F240
:101930000A06C2F20006317040F28A16C2F20006B0
:10194000307040F20506C2F2000640F2070840F28D
:101950000907357040F28616C2F20008C2F200078D
:10196000C2F2000688F800503C70347040F28814CF
:1019700040F21A05C2F20004C2F2000540F2060964
:101980002370B5F90030C2F2000989F800205A43EB
:1019900000EE102A40F2871A9FEDC18AC2F2000AB7
:1019A000B8EEC00A8AF80010594320EE080A01EE8A
:1019B000101A40F2891BBDEEC00AC2F2000B10EEF5
:1019C000101AB8EEC10A8BF80000584320EE080A3E
:1019D00002EE100ABDEEC00A10EE102AB8EEC20ADE
:1019E00020EE080ABDEEC00A10EE103A012010F0F9
:1019F00021FB99F80000B5F90030584300EE100AB9
:101A0000B8EEC00A9AF8000020EE080ABDEEC00A3F
:101A1000584310EE101A00EE100AB8EEC00A9BF8F8
:101A2000000020EE080ABDEEC00A584310EE102A4E
:101A300000EE100AB8EEC00A20EE080ABDEEC00A99
:101A400010EE103A022010F0F5FA98F80000B5F9FF
:101A50000030584300EE100AB8EEC00A387820EE85
:101A6000080ABDEEC00A584310EE101A00EE100A24
:101A700040F20B00C2F20000B8EEC00A007820EE7F
:101A8000080ABDEEC00A584310EE102A00EE100AF4
:101A9000B8EEC00A20EE080ABDEEC00A10EE103AF9
:101AA000032010F0C7FA40F20500C2F200000078EF
:101AB000B5F90030584300EE100AB8EEC00A30788D
:101AC00020EE080ABDEEC00A584310EE101A00EED0
:101AD000100AB8EEC00A207820EE080ABDEEC00A4F
:101AE000584310EE102A00EE100AB8EEC00A20EE9D
:101AF000080ABDEEC00A10EE103A042010F09AFA5F
:101B0000012010F00FFB022010F00CFB032010F05E
:101B100009FB042010F006FB40F21400C2F20000A2
:101B20000078022840F08F8010F002FF40F20F0092
:101B300040F29911C2F20000C2F200010078097867
:101B400012F002FC40F29C110020C2F20001087069
:101B500012B0BDEC028B01B0BDE8F08F0027002071
:101B60000021F022F023009706F0EAFE40F2140173
:101B7000C2F20001FF2246F23070C0F60B000A707C
:101B800012B0BDEC028B01B0BDE8F04FFEF71CBEF9
:101B9000062900F08780002940F0948040F214006C
:101BA000C2F20000002340F283170370C2F2000764
:101BB00046F20360C0F60B00002100223B7012B019
:101BC000BDEC028B01B0BDE8F04FFEF7FBBB00BFE0
:101BD00004F10C00FEF7B2FD0138B0FA80F04FEAD4
:101BE000501146F23F7040F2981446F28372C0F6EC
:101BF0000B00C2F20004C0F60B0208BF10462170B1
:101C0000FEF7E2FD10F0E2FC40F21400C2F2000028
:101C10000078022802D1207812F042FD227846F2A4
:101C2000805102ACC0F60B012046FEF7D7FB2046E0
:101C3000FEF740FE82B243F25810C2F20000214685
:101C4000642305F039FA12B0BDEC028B01B0BDE897
:101C5000F08F00BF46F28240C0F60B0036E000BFB6
:101C6000E01DFEF76BFD40F21A0420EAE070C2F2BC
:101C700000046428A8BF6420208010F0A7FC40F274
:101C80001400C2F200000078042802D120880AF073
:101C9000BFF9B4F9001046F25140C0F60B0015E050
:101CA0000AD7233C40F21400C2F20000062140F2A1
:101CB00083120170C2F2000246F2D560C0F60B003A
:101CC000D4E500BF46F26B40C0F60B0012B0BDEC8D
:101CD000028B01B0BDE8F04FFEF774BB04F10D05B7
:101CE0002846FEF72BFD044628463A21FEF788FDDC
:101CF0000028A8D0461C3046FEF720FD0546304699
:101D00003A21FEF77DFD00289DD0461C3046FEF7A7
:101D100015FD074630463A21FEF772FD002892D0A5
:101D2000461C3046FEF70AFD814630463A21FEF752
:101D300067FD002800F024820130FEF7FFFC80469A
:101D400020E200BF251D2846FEF7F8FC0446284681
:101D50003A21FEF755FD00283FF475AF461C30468A
:101D6000FEF7ECFC054630463A21FEF749FD002817
:101D70003FF469AF461C30463A21FEF741FD00288A
:101D80003FF461AF0746601F10F1040FFFF45BAF33
:101D90003046FEF7D3FC0646781CFEF7CFFC80F3F6
:101DA00008084AF6E00085F3080B86F3080A661E69
:101DB000C0F601004AF6F0014AF600124AF6101386
:101DC0004AF684074AF6940550F82600C0F6010149
:101DD000C0F60102C0F60103C0F60107C0F6010516
:101DE00051F8261052F8262053F8263057F826705E
:101DF00055F8265080F800B040F21A0081F800A093
:101E000082F80080A3F800B0A7F800A0A5F8008031
:101E1000C2F20000B0F900001FED5F1A0BFB00F1E9
:101E200000EE101AB8EEC00A20EE010ABDEEC00A9C
:101E30000AFB00F210EE101A00EE102AB8EEC00AEB
:101E400020EE010ABDEEC00A08FB00F010EE102AD9
:101E500000EE100AB8EEC00A20EE010ABDEEC00A7C
:101E6000E7B210EE103A384610F0E4F8384610F0B9
:101E700059F940F21400C2F200000078032840F043
:101E8000F38240F29710C2F200000670F0B211F037
:101E90004FFE40F21C19C2F2000943F68C6309EBB5
:101EA0000407C2F20003397D7A7EB87F1B68D9F837
:101EB00010609E1B632E00F2018299F802600136C9
:101EC000F5B2032D89F80260C0F004828B4500F062
:101ED0000182924500F0FE81804500F0FB810120E7
:101EE00089F80300C9F81030FAE100BFA01DFEF721
:101EF00025FC40F22A0120EAE074C2F20001B4F5A8
:101F0000AA7FA8BF4FF4AA740C8064216143AA3150
:101F100089B24CF2C10243F28003514340F2C41231
:101F2000C2F2000340F21C15090EC2F200021B6847
:101F3000C2F2000511804FF47A7240F21006AC80B4
:101F40003D28B8BF00225A631A64C2F200063278F4
:101F5000022A1AD149F6A212C0F2050251431E22EA
:101F600002EBD1410228B8BF0021C8B202F0E4F868
:101F700040F211010220C2F200013070087043F6F5
:101F80008C60C2F200000068E86040F21400C2F207
:101F90000000007801287FF456AEA0B2022109F0BB
:101FA00071F93078FFF7D7BB04F10900FEF7C6FBE3
:101FB000012875D140F21004C2F20004207840F2EA
:101FC0001201C2F20001087040F211010220C2F2B7
:101FD00000012070087040F20040C4F202004FF48B
:101FE0008071012202F0F4FC40F28011C2F2000183
:101FF0002078097815F0DEFC02F0A0F846F299701E
:10200000C0F60B00BCE500BF251D0FF2EC512846C1
:10201000FEF75AFD002800F00B810FF2E051284630
:10202000FEF752FD002800F025810FF2D851284616
:10203000FEF74AFD002800F0758146F2BB71C0F63C
:102040000B012846FEF740FD002800F0A3810FF2A7
:10205000BC512846FEF738FD002800F0BB810FF286
:10206000B4512846FEF730FD002800F02982287878
:10207000552806D16079492803D1A079002800F0BD
:10208000878246F2B671C0F60B012846FEF71CFDAA
:10209000002861D046F25060C0F60B002946B7E137
:1020A00040F21200C2F20000007840F21101C2F2C8
:1020B0000001087040F2C411C2F2000100220A803F
:1020C00043F28001C2F2000140F210040968C2F23A
:1020D000000420704A630A6438B940F20040C4F238
:1020E00002004FF4807102F073FC40F21400C2F25F
:1020F00000000078012803D10020022109F0C2F875
:1021000040F28011C2F200012078097815F052FCEB
:1021100002F07CF846F2F360C0F60B0030E500BF39
:1021200046F2C771C0F60B0120460A22FEF7E1FB1A
:1021300090B947F2F440C0F60B0090E88E000DF124
:10214000080C8CE88E00018A807CADF818108DF8A0
:102150001A0002A800F016FB20460BF099FA12B004
:10216000BDEC028B01B0BDE8F08F00BF204612B07D
:10217000BDEC028B01B0BDE8F04F0DF0D1BD00BF4A
:102180004FF00108601F10F1040FFFF45CAD85F300
:10219000080A4B256FF003004AF6E0014AF6F00208
:1021A0004AF60013B8F1020F08BF962500EB840031
:1021B000C0F60101C0F60102C0F6010389F308066A
:1021C000B8F1000F08BF192551F800C052F800E01F
:1021D00053F800904AF610114AF684024AF6940326
:1021E000C0F60101C0F60102C0F6010309581258F9
:1021F000185887F308078CF800A08EF8007089F84B
:102200000060A1F800A017800680601EC0B2514691
:102210003A46334600950AF073FE46F2CA50C0F6BD
:102220000B00214652463B46CDE9006825E100BF40
:1022300040F2C415C2F20005B5F9002046F277510C
:1022400002ACC0F60B012046FEF7C8F82046FEF7A8
:1022500031FB82B243F25810C2F2000021466423DF
:1022600004F02AFFB5F9001046F2CA40C0F60B0090
:10227000CEE000BF40F21005C2F20005287846F219
:1022800030510138B0FA80F002AC4209C0F60B01BF
:102290002046FEF7A3F82046FEF70CFB82B243F27D
:1022A0005810C2F200002146642304F005FF29788B
:1022B00046F29D40C0F60B00AAE000BF0125B6F52E
:1022C000FA7F89F8025005D9002689F80360C9F819
:1022D000103011E099F80360C9F81030012E0BD1CD
:1022E000042014F013FF052014F010FF062014F052
:1022F0000DFF0026B0E000BF8B4535D0924533D1AD
:10230000804531D199F80100042805D0052014F04A
:10231000FDFE062014F0FAFE5FFA8BF1042004267D
:1023200098E000BF40F21A05C2F20005B5F900209E
:1023300046F2AB5102ACC0F60B012046FEF74EF858
:102340002046FEF7B7FA82B243F25810C2F20000FC
:102350002146642304F0B0FEB5F9001046F2175090
:10236000C0F60B0054E000BF8B4559D1924557D0C1
:10237000804555D199F80100052805D0042014F0B6
:10238000C5FE062014F0C2FE5FFA8AF1052005267C
:1023900060E000BF40F29815C2F200052A7846F2CC
:1023A000835102ACC0F60B012046FEF717F8204619
:1023B000FEF780FA82B243F25810C2F200002146C2
:1023C000642304F079FE297846F2F940C0F60B0048
:1023D0001EE000BF40F20F05C2F200052A7846F267
:1023E000B75102ACC0F60B012046FDF7F7FF2046BF
:1023F000FEF760FA82B243F25810C2F200002146A2
:10240000642304F059FE297846F2E040C0F60B0040
:10241000FDF7D8FF12B0BDEC028B01B0BDE8F08F24
:1024200082EA0A0281EA0B01114318BF012140F040
:10243000A580804500F0A28099F80100062805D00B
:10244000042014F063FE052014F060FE5FFA88F1AA
:102450000620062612F00CFC89F8016087F814B0FB
:1024600087F819A087F81E8046F23B50C0F60B0093
:1024700021465A465346CDF80080FDF7A3FF12B01F
:10248000BDEC028B01B0BDE8F08F00BF5755485539
:10249000413A000046414E3A000000005B424C4584
:1024A0005D204C6F676F20535441525420636F6D11
:1024B0006D616E6420286C656E3D2564290D0A00EF
:1024C00040F21001C2F2000140F2C4100978C2F2D9
:1024D0000000B0F90020481E40F21A01C2F20001CB
:1024E000B0FA80F0B1F9007046F2945102AC4309A1
:1024F000C0F60B0120460097FDF770FF2046FEF75F
:10250000D9F982B243F25810C2F200002146642386
:1025100004F0D2FD46F25670C0F60B00FEF754F9F7
:1025200012B0BDEC028B01B0BDE8F08F554E49549E
:102530003A0000004C43443A00000000505245531A
:1025400045543A0053545245414D4C494748543A3A
:10255000000000004252494748543A004C45445F4D
:102560004752414449454E543A0000004C45443AD4
:102570000000000053504545443A0000B8EB00000D
:1025800018BF0120084301283FF4AAAE66E700BF48
:1025900040F21405C2F200052A7846F2595102AC05
:1025A000C0F60B012046FDF719FF2046FEF782F921
:1025B00082B243F25810C2F200002146642304F0B4
:1025C0007BFD297846F2B540C0F60B0020E700BF3E
:1025D0005448524F54544C453A0000004745543A31
:1025E000000000004F54415F000000004745543A8E
:1025F0004C4F474F0000000046414E00575548558C
:10260000410000004252494748540000505245538F
:1026100045540000414C4C006D70680010B588B006
:102620006C460B46024609A12046FDF7D7FE204620
:10263000FEF740F982B243F25810C2F20000214680
:10264000642304F039FD08B010BD00BF42544E3A77
:1026500025733A25730A000010B586B0024601AC16
:10266000012898BF01220AA120460C2A28BF0C226B
:10267000FDF7B4FE2046FEF71DF982B243F2581072
:10268000C2F200002146642304F016FD06B010BD1E
:102690005052455345545F5245504F52543A256469
:1026A0000A00000010B586B020EAE072B2F5AA7FF9
:1026B0006C460B46A8BF4FF4AA72012909A1204617
:1026C00088BF0023FDF78AFE2046FEF7F3F882B2AA
:1026D00043F25810C2F200002146642304F0ECFCDF
:1026E00006B010BD53504545445F5245504F5254BB
:1026F0003A25643A25640A0010B586B001AC02465A
:1027000000280AA1204618BF0122FDF767FE2046D7
:10271000FEF7D0F882B243F25810C2F20000214610
:10272000642304F0C9FC06B010BD00BF5448524FEA
:1027300054544C455F5245504F52543A25640A0058
:1027400010B584B06C46024600280AA1204618BF86
:102750000122FDF743FE2046FEF7ACF882B243F2B9
:102760005810C2F200002146642304F0A5FC04B016
:1027700010BD00BF554E49545F5245504F52543A18
:1027800025640A0010B50446FEF794F882B243F2BD
:102790005810C2F2000021466423BDE8104004F046
:1027A0008BBC0000B0B52DED028B40F28014C2F25C
:1027B0000004607F01280FD140F20405C2F2000539
:1027C000287C042808D043F68C60C2F2000001681F
:1027D000E26C891A142903D2BDEC028BB0BD00BF94
:1027E0000068E18FE064081D81B289089C2988BFD8
:1027F000002081B200EE101A9FED5F8AB8EE400A09
:1028000020EE080AE08717F07FFD9FED5C1AB5F90E
:10281000160020EE010A9FED5A1AAA7930EE010A3D
:1028200001EE100AB8EEC11A20EE010ABDEEC00A90
:102830002879B8EE400A20EE088A00EE100AB8EEB9
:10284000400A28EE000ABDEEC00A10EE101A00EE93
:10285000102AB8EE400A28EE000AA07ABDEEC00A9F
:1028600010EE102A00EE100AB8EE400A28EE000A18
:10287000BDEEC00A10EE103A01200FF0DBFBB5F9F7
:102880001A00B4F93A3000EE100AB8EEC00A28EE89
:10289000000AB4F93600BDEEC00A10EE101A00EEC0
:1028A000100AB8EEC00A28EE000ABDEEC00A10EE0B
:1028B000102A00EE103AB8EEC00A28EE000ABDEE6B
:1028C000C00A10EE103A02200FF0B4FBB5F91C005C
:1028D000B5F9202000EE100AB8EEC00A28EE000A72
:1028E000BDEEC00A10EE101A00EE102AB8EEC00AB3
:1028F000B5F9243028EE000ABDEEC00A10EE102A09
:1029000000EE103AB8EEC00A28EE000ABDEEC00A8A
:1029100010EE103A03200FF08DFB03200FF002FCA5
:102920006878237A00EE100AB8EE400A28EE000A12
:10293000A079BDEEC00A10EE101A00EE100AB8EE33
:10294000400A28EE000ABDEEC00A10EE102A00EE82
:10295000103AB8EE400A28EE000ABDEEC00A10EEAA
:10296000103A04200FF066FB0420BDEC028BBDE89A
:10297000B0400FF0D7BB00BF0AD7233CCDCCCC3E34
:102980009A99193FFEE70000002904BF0020704714
:102990002DE9F04FC1B00DF104084EF26C258B46C5
:1029A000814608F101064FF0FF37C0F6010503E04C
:1029B000BBEB0A0BD1445FD0DA46BBF5807F28BF62
:1029C0004FF4807A4046494652460EF0ABFFBBF1C9
:1029D000040F05D200201AF003012ED1E8E700BF52
:1029E0002AF0030041426FF0030000BF3218D37891
:1029F00014797B40DBB255F82330043083EA172387
:102A000084EA0307FFB255F82770547987EA132345
:102A100084EA0307FFB255F82770927987EA1323F7
:102A20005A40D2B255F822200F18043782EA1327F1
:102A3000DCD104301AF00301BAD018F800200129C3
:102A400082EA0702D2B255F8222082EA1727AFD0D5
:102A500040444278022982EA0702D2B255F8222085
:102A600082EA1727A4D080787840C0B255F82000B9
:102A700080EA17279CE700BFF84341B0BDE8F08F1C
:102A800042F68860C2F2000001F0D2BC42F6C850A3
:102A9000C2F2000001F0CCBC42F62860C2F2000095
:102AA00001F0C6BC704700002DE9F04381B0044638
:102AB00000200021F022F023002504F0B1FF40F2B5
:102AC0002E06C2F20006F08840B140F27840C2F211
:102AD00000004FF48061FDF7CEFFF58040F27845AD
:102AE0004EF2E126C2F200053746B6F5007F28BF58
:102AF0004FF400777900284608F07EFBF61BF3D1EF
:102B0000A4F10108B8F1050F00F2A483DFE818F082
:102B10000600F8019A00AE015000420256203D2105
:102B20009922762304F07CFF41F65A550024C0F622
:102B300009054FF0000900BF04F13A0087B200BF59
:102B400015F8140005EB440608F036FB707808F021
:102B500033FB0134A0B28742F2D1B9F1430F09F13E
:102B60000109E9D346209B21A822BB2304F058FF8A
:102B70004CF2CE050024C0F60A054FF0000900BF54
:102B800004F1210087B200BF15F8140005EB4406DC
:102B900008F012FB707808F00FFB0134A0B28742F6
:102BA000F2D1B9F1620F09F10109E9D305E300BFE0
:102BB0005620382199227B2304F032FF4AF28065A7
:102BC0000024C0F609054FF0000900BF04F14400DD
:102BD00087B200BF15F8140005EB440608F0ECFAC4
:102BE000707808F0E9FA0134A0B28742F2D1B9F165
:102BF000430F09F10109E9D350209B219E22BB23F9
:102C000004F00EFF49F222250024C0F609054FF01A
:102C1000000900BF04F1210087B200BF15F81400BD
:102C200005EB440608F0C8FA707808F0C5FA0134DC
:102C3000A0B28742F2D1B9F14E0F09F10109E9D3EF
:102C4000BBE200BF5720382197227B2304F0E8FE27
:102C50004EF620750024C0F609054FF0000900BFAC
:102C600004F1440087B200BF15F8140005EB4406D8
:102C700008F0A2FA707808F09FFA0134A0B28742F7
:102C8000F2D1B9F1400F09F10109E9D354209B2198
:102C90009B22B52304F0C4FE4DF6F070C0F6090087
:102CA00000F135074FF0000917F8350C17F8344CD0
:102CB00017F8335C17F8326C08F07EFA204608F0FB
:102CC0007BFA284608F078FA304608F075FA17F8CB
:102CD000310C08F071FA17F8300C08F06DFA17F89B
:102CE0002F0C08F069FA17F82E0C08F065FA17F89F
:102CF0002D0C08F061FA17F82C0C08F05DFA17F8A3
:102D00002B0C08F059FA17F82A0C08F055FA17F8A6
:102D1000290C08F051FA17F8280C08F04DFA17F8AA
:102D2000270C08F049FA17F8260C08F045FA17F8AE
:102D3000250C08F041FA17F8240C08F03DFA17F8B2
:102D4000230C08F039FA17F8220C08F035FA17F8B6
:102D5000210C08F031FA17F8200C08F02DFA17F8BA
:102D60001F0C08F029FA17F81E0C08F025FA17F8BE
:102D70001D0C08F021FA17F81C0C08F01DFA17F8C2
:102D80001B0C08F019FA17F81A0C08F015FA17F8C6
:102D9000190C08F011FA17F8180C08F00DFA17F8CA
:102DA000170C08F009FA17F8160C08F005FA17F8CE
:102DB000150C08F001FA17F8140C08F0FDF917F8D3
:102DC000130C08F0F9F917F8120C08F0F5F917F8D8
:102DD000110C08F0F1F917F8100C08F0EDF917F8DC
:102DE0000F0C08F0E9F917F80E0C08F0E5F917F8E0
:102DF0000D0C08F0E1F917F80C0C08F0DDF917F8E4
:102E00000B0C08F0D9F917F80A0C08F0D5F917F8E7
:102E1000090C08F0D1F917F8080C08F0CDF917F8EB
:102E2000070C08F0C9F917F8060C08F0C5F917F8EF
:102E3000050C08F0C1F917F8040C08F0BDF917F8F3
:102E4000030C08F0B9F917F8020C08F0B5F917F8F7
:102E5000010C08F0B1F917F8360B08F0ADF9B9F12B
:102E6000470F09F10109FFF41FAFA6E154203621F5
:102E70009B227D2304F0D4FD44F20A250024C0F6F1
:102E800008054FF0000900BF04F1480087B200BFF9
:102E900015F8140005EB440608F08EF9707808F078
:102EA0008BF90134A0B28742F2D1B9F1470F09F191
:102EB0000109E9D344209B21AA22BB2304F0B0FDE1
:102EC00042F27C750024C0F608054FF0000900BFEF
:102ED00004F1210087B200BF15F8140005EB440689
:102EE00008F06AF9707808F067F90134A0B28742F7
:102EF000F2D1B9F1660F09F10109E9D35DE100BF33
:102F0000532035219C227E2304F08AFD40F2E245C5
:102F10000024C0F60B054FF0000900BF04F14A0081
:102F200087B200BF15F8140005EB440608F044F919
:102F3000707808F041F90134A0B28742F2D1B9F1BA
:102F4000490F09F10109E9D34C209B21A322B923A0
:102F500004F066FD4CF6A0250024C0F609054FF0EC
:102F6000000900BF04F11F0087B200BF15F814006C
:102F700005EB440608F020F9707808F01DF90134DB
:102F8000A0B28742F2D1B9F1570F09F10109E9D393
:102F900013E100BF53203D219B22762304F040FD26
:102FA00044F2A6250024C0F60B054FF0000900BF2F
:102FB00004F13A0087B200BF15F8140005EB44068F
:102FC00008F0FAF8707808F0F7F80134A0B28742F8
:102FD000F2D1B9F1480F09F10109E9D34B209B2146
:102FE000A422B52304F01CFD42F6AA70C0F60B0023
:102FF00000F135074FF0000917F8350C17F8344C7D
:1030000017F8335C17F8326C08F0D6F8204608F051
:10301000D3F8284608F0D0F8304608F0CDF817F875
:10302000310C08F0C9F817F8300C08F0C5F817F89B
:103030002F0C08F0C1F817F82E0C08F0BDF817F89F
:103040002D0C08F0B9F817F82C0C08F0B5F817F8A3
:103050002B0C08F0B1F817F82A0C08F0ADF817F8A7
:10306000290C08F0A9F817F8280C08F0A5F817F8AB
:10307000270C08F0A1F817F8260C08F09DF817F8AF
:10308000250C08F099F817F8240C08F095F817F8B3
:10309000230C08F091F817F8220C08F08DF817F8B7
:1030A000210C08F089F817F8200C08F085F817F8BB
:1030B0001F0C08F081F817F81E0C08F07DF817F8BF
:1030C0001D0C08F079F817F81C0C08F075F817F8C3
:1030D0001B0C08F071F817F81A0C08F06DF817F8C7
:1030E000190C08F069F817F8180C08F065F817F8CB
:1030F000170C08F061F817F8160C08F05DF817F8CF
:10310000150C08F059F817F8140C08F055F817F8D2
:10311000130C08F051F817F8120C08F04DF817F8D6
:10312000110C08F049F817F8100C08F045F817F8DA
:103130000F0C08F041F817F80E0C08F03DF817F8DE
:103140000D0C08F039F817F80C0C08F035F817F8E2
:103150000B0C08F031F817F80A0C08F02DF817F8E6
:10316000090C08F029F817F8080C08F025F817F8EA
:10317000070C08F021F817F8060C08F01DF817F8EE
:10318000050C08F019F817F8040C08F015F817F8F2
:10319000030C08F011F817F8020C08F00DF817F8F6
:1031A000010C08F009F817F8360B08F005F8B9F12A
:1031B000590F09F10109FFF41FAF44F2082352200F
:1031C000CD21032244F20824B8F1000F08BF4FF6C6
:1031D000FF7301F045F844F208236120CD2103225A
:1031E000B8F1010F08BF4FF6FF7301F039F844F250
:1031F00008237020CD210322B8F1020F08BF4FF63B
:10320000FF7301F02DF844F208237F20CD21032223
:10321000B8F1030F08BF4FF6FF7301F021F844F235
:1032200008238E20CD210322B8F1040F08BF4FF6EA
:10323000FF7301F015F8B8F1050F08BF4FF6FF74E2
:103240009D20CD210322234601B0BDE8F04301F0CB
:1032500007B800BF01B0BDE8F08300002DE9F04FD2
:103260008FB0171ACDE90501384648BF7842069954
:103270005E1A314648BF7142002800F0BF800B043F
:1032800000F0D28000B209B28842C8BF01460029CE
:10329000049100F1AF800498002380B2039038B20B
:1032A000029030B2019007E00798013003B2049811
:1032B00000B2834200F39E8002980199039A10FBAA
:1032C00003F011FB03F190FBF2F091FBF2F1059A90
:1032D000079302EB000A0698AAF1020208440E9036
:1032E000AAF10400AAF1030180B2089088B20AF1A1
:1032F00002050B9090B2AAF101030AF101060AF14E
:10330000030C0AF104070C90A8B20D976FF00307A5
:103310009CB2B6B20A901FFA8CF0099006E000BF8A
:103320000D98002F5CD00137052FBDD00E9800EB13
:1033300007054FB107FB07F007280BD90C2845D824
:103340004FF000080EE000BF0898A9B24FF6FF72D8
:1033500004F01CFF0B98A9B24FF6FF7204F016FFA1
:103360004FF001080C98A9B24FF6FF7204F00EFF5F
:103370004FF0010B1FFA85F9204649464FF6FF72C0
:1033800004F004FF1FFA8AF049464FF6FF7204F07A
:10339000FDFE304649464FF6FF7204F0F7FEBBF1E2
:1033A000000F03D1B8F1000FBAD008E00A984946DF
:1033B0004FF6FF7204F0EAFEB8F1000FB0D00998A2
:1033C00049464FF6FF7204F0E1FEA9E7102805D246
:1033D0004FF000084FF0000BCCE700BF5046A2D1E1
:1033E00080B2A9B24FF6FF7204F0D0FE0137052F6C
:1033F0009CD159E70FB0BDE8F08F00BF06984FF69B
:10340000FF778342014638BF1946984288BF03467A
:10341000059A101F043280B292B2009705F090FA1C
:103420000FB0BDE8F08F00BF05994FF6FF778A42D5
:10343000084638BF1046914288BF0A46069B191FAE
:10344000043389B29BB2009705F07AFA0FB0BDE859
:10345000F08F00002DE9F04F81B043F68C6B40F205
:103460008015C2F2000BC2F20005DBF80000E96E25
:10347000401A142802D201B0BDE8F08FDBF800003A
:10348000E97F42F6F074C2F20004E866F1B9204622
:103490003C2102F055FF1820C4F2010001684FF6EC
:1034A000FC4291434FF2F0021143016020684FF655
:1034B000FF71C162E1604FF400414162A5F8401024
:1034C00020463C2102F0DEFE0120E877206840F231
:1034D0000408416AB5F84000A5F840100A1A10B275
:1034E000A2F16501032889B2A8BF032010F1030FE0
:1034F0004FF63772C2F20008D8BF6FF00200914257
:1035000098F8101038BF00200529688616D195F864
:103510002510084485F82500DBF800106A6F40B2DA
:10352000891A962938D302283CDB98F8000001302C
:10353000C1B2062988BF01203DE000BF012949D161
:1035400098F80C10022945D0B5F84410014409B28E
:103550006429A8BF642121EAE1710004A5F84410A0
:1035600038D04FF4AA704843323080B2800841F21C
:103570007B414843B8F82610440C40F220108C429E
:10358000C2F20000048025D029782046FFF78AF88F
:10359000A8F826401EE000BF0B2815DB0A2085F89E
:1035A000250017E010F1020F14DC98F80000013834
:1035B000010608BF062088F80000DBF800006867F5
:1035C000002085F8250005E010F10B0FDCBFF62088
:1035D00085F8250040F20049C4F20209A9F580608F
:1035E0004FF4806101F0EEF998F80C20B0FA80F108
:1035F000022A4FEA511A3FD195F8261089B90121C4
:1036000085F826100021A5F8271085F82910DBF889
:10361000001040F2FC12A967DBF80010C2F20002B1
:103620001160698E00295FD098F80E20002085F87F
:10363000260085F8290048464FF4807188F80C2050
:1036400088F80D20002A18BF012201F0C1F90120DD
:1036500088F8100098F80C0029780222EA7014F01B
:10366000A9F900F0D3FD0020FFF746F888F80FA075
:1036700001B0BDE8F08F00BF98F80F30002808BFF8
:10368000002B55D0A97F0028064618BF01261DD063
:10369000012B1BD1DBF800402F6DE71B3F09182FD2
:1036A00014D8FF2912D0002900F0D680DBF80000E2
:1036B0006A6D801AB0F5C87F80F0CE80022928BFDD
:1036C00002210131A97705F1540083E1013BB3FAEE
:1036D00083F35B093340012B08BFFF2936D0002854
:1036E00040F07B81286D29E098F80F1040F22019F6
:1036F0000143090604BFDBF800102965C2F2000986
:10370000B9F9002088F80FA0012A27DBC2EB0211CB
:103710004CF2C1034900CCF2C003A1FB03134621C4
:1037200001EB1321CCB2642C28BF642417E000BF46
:10373000DBF80000A97F2865FF293DD0DBF80030C9
:10374000181AB0F5487F40D247E100BF0020A877A3
:1037500088F80FA001B0BDE8F08F00BF002440F250
:103760002813C2F20003DBF800101B68C91A89088D
:103770007C290BD8012085F8290085F827A0DBF8E3
:103780000000A86701B0BDE8F08F00BF95F82910D0
:10379000012971D195F827100843000640F04C81AB
:1037A000002085F8290000F0C9FC462085F8280093
:1037B00000F0C2FCBAE000BF0021A977DBF80030BE
:1037C000181A400918287FF651AF98F810000328FE
:1037D00014D128790138022880F0FA800020A880CE
:1037E000042013F093FC052013F090FC062013F046
:1037F0008DFCE97D01200FF077FB23E0012805F126
:10380000500040F0E780EB78022B40F0E380013A73
:1038100048464FF4807118BF012288F80C2088F8C0
:103820000D2088F80E2001F0D3F898F80C002978C4
:1038300014F0C0F846F2BA30C0F60B000FF2446143
:10384000FEF7ECFEFF20A877DBF80000286588F87B
:103850000FA001B0BDE8F08F0120A877DBF80000D1
:1038600088F80FA06865DBF80010081A000918280E
:1038700000F2CB80FFE500BF002857D0DBF8000046
:10388000A96F401A0C2830D3AA206421012AA4BFB2
:10389000013AA9F8002011FB020046F26101C6F2CC
:1038A000600150FB01F0C11101EBD070010448BF71
:1038B0000020A5F84400DBF800001104A86709D037
:1038C00040F2FC11C2F20001DBF800004968401A26
:1038D00064280AD3297810B2FEF7E4FEDBF8000072
:1038E00040F2FC11C2F20001486040F2FC19C2F241
:1038F0000009DBF80000D9F80010401A1E28C0F0BB
:10390000658195F82800A0420AD90238C1B2204644
:10391000A14288BF0846C82988BF204685F82800EC
:10392000002800F0498100F007FC4BE195F82700E2
:1039300030B900F003FC462085F8280000F0FCFBBD
:10394000DBF80000A96F401A122836D3B9F900003D
:10395000AA22642346F26106B0F5AA7FBCBF0130FB
:10396000A9F8000013FB0022C6F2600652FB06F223
:10397000D60906EBD27212B2642AB8BF1346A5F874
:10398000443081B2DBF80020B1F5AA7FAA6709D0E4
:1039900040F2FC12C2F20002DBF800105268891AF1
:1039A00064290AD3297800B2FEF77CFEDBF8000018
:1039B00040F2FC11C2F20001486095F82800A042D4
:1039C00064D20230C0B2A04238BF0446204665E04F
:1039D00005F15000DBF800200260481EC0B2FD284F
:1039E00088F80FA03FF647ADDBF800006A6D801A3B
:1039F000B0F5C87FFFF43FADC8B2032800F07C806B
:103A0000022857D0012840F0528146F2BA30C0F661
:103A10000B000FF28C41FEF701FE98F810100529FB
:103A200010D198F80000062800F0C080052840F06A
:103A3000BF80062038E100BF85F827A001B0BDE8AF
:103A4000F08F00BF012940F08380E878022840F021
:103A50007F8098F80C00022800F07A802978B1FA6B
:103A600081F14909297013F0A5FF40F22010C2F23C
:103A700000000088022107F005FC2878FEF760FEB0
:103A80000020A87701B0BDE8F08F00BF40F29E8013
:103A90000138C1B2C82998BF0446E0B285F8284071
:103AA00000F04AFB85F827A088F80FA001B0BDE818
:103AB000F08F00BF46F2BA30C0F60B000FF2D831DB
:103AC000FEF7ACFD98F81000052800F0F08098F89B
:103AD0000C10022900F0EB80811E052900F2E18024
:103AE000DFE801F004C6BEDFDADE00BF0FF074F9D4
:103AF0000EF06CFD0220D4E098F81010012945D199
:103B0000E878022842D198F80C0002283ED046F20C
:103B1000BA30C0F60B000FF27831FEF77FFD98F84F
:103B20000C004FF4807188F80E0040F20220A8F8D3
:103B30000C004846012200F04BFF98F80C00297851
:103B400013F038FF0120FEF7D7FD98F8110023E0AD
:103B5000881E052800F2AB80DFE800F004604CA965
:103B6000A97400BF287EB0FA80F04109CEA0297662
:103B7000FCF728FC0FF030F90EF028FD287E10F03D
:103B80008FFD0020A87701B0BDE8F08F98F81100F4
:103B9000012908BF002821D0012804BF002088F88F
:103BA00011000020A87701B0BDE8F08F07207BE06E
:103BB000042879D97BE000BF00F000FA002818BF84
:103BC00000F024FBDBF80000C9F8000085F827A00E
:103BD00088F80FA001B0BDE8F08F00BF287800285A
:103BE00014BF0020012028700020A87701B0BDE894
:103BF000F08F00BF687FB0FA80F14909002869772B
:103C00005AD003F0DDFF0EF0E1FCB8F8160008F022
:103C1000FFF90020A87701B0BDE8F08F28790228CD
:103C200000F07280012859D0002840D10120A880DE
:103C3000042010F0D1FE052013F068FA062013F0DE
:103C400065FADFE095F82400C143FF2885F82410C9
:103C50002DD10FF0C1F80020A87701B0BDE8F08F9A
:103C6000002068770FF0B8F80EF0B0FC042018E0E0
:103C70000FF0B2F80EF0AAFC00206871032088F85B
:103C80000000052088F81000A5F803000020A877A0
:103C900001B0BDE8F08F00BF052088F8000003E008
:103CA000062088F80000052088F81000E870002041
:103CB000A87701B0BDE8F08F002414205521A02280
:103CC0008A23009404F03CFEEC87DBF80000E864F3
:103CD0000020A87701B0BDE8F08F00BF687902210D
:103CE000022829712CD001281ED00028DFD1E87DC0
:103CF000032800F2BD80DFE800F003AF9BA700BF00
:103D000098F81E00B5E000BFE87D01210328297165
:103D100036D8DFE800F0032F212900BFB8F81E10C5
:103D2000B8F82220AB8F2EE0E87D032800F29880BF
:103D3000DFE800F00282727698F8220091E000BF7E
:103D4000E87D032800F29080DFE800F002826E7ABE
:103D500095F83C0089E000BFB8F81C10B8F82020A6
:103D6000B8F824300FE000BFB8F81810AA8E2B8FD7
:103D700009E000BFB8F81A10EA8E6B8F03E000BFAD
:103D8000002100220023B8F916709FED4E1A17FB90
:103D900001F100EE101AB8EEC00A20EE010ABDEEE5
:103DA000C00A17FB02F210EE101A00EE102AB8EE4D
:103DB000C00A20EE010ABDEEC00A17FB03F310EEA5
:103DC000102A00EE103AB8EEC00A20EE010A0130C7
:103DD000BDEEC00A10EE103AC0B20EF02BF9E87D2D
:103DE0000130C0B20EF09EF9042013F08FF90520C7
:103DF00013F08CF9062013F089F968790430C0B209
:103E000010F0EAFDE97D00200FF06EF80020A877A1
:103E100001B0BDE8F08F00BF98F8200021E000BF9E
:103E200095F834001DE000BF98F824001DE000BFA5
:103E300098F81C001DE000BF95F8360011E000BFA7
:103E400095F8380011E000BF98F8180011E000BFA5
:103E500095F83A0009E000BF98F81A0009E000BFA1
:103E60000020C1B2052006E00020C1B2062002E019
:103E70000020C1B2042010F0FBFE0020A87701B0A2
:103E8000BDE8F08F4C4F4E475F50524553530000F2
:103E9000545249504C450000444F55424C45000097
:103EA000434C49434B00000055493220436C696341
:103EB0006B3A2064656E675F326F72333D25640D27
:103EC0000A0000000AD7233CB0B540F28015C2F2C8
:103ED0000005E87F002818BFB0BD42F6F074C2F2BA
:103EE000000420463C2102F02BFA1820C4F2010005
:103EF00001684FF6FC4291434FF2F002114301601A
:103F000020684FF6FF71C162E1604FF400414162E9
:103F1000A5F8401020463C2102F0B4F90120E877D2
:103F2000B0BD000080B546F22240C0F60B0049F655
:103F3000B951FCF747FA4FF2D30108A0C0F20201D1
:103F4000FCF740FA40F20811C2F2000100220A8098
:103F50000EA08A70BDE88040FCF736BC5B456E67FA
:103F6000696E65417564696F5D20416363656C20AE
:103F7000617564696F204F4B2C2073697A653A2014
:103F800025642062797465730D0A00005B456E67D5
:103F9000696E65417564696F5D204D756C74692D3E
:103FA0007365676D656E7420617564696F20696EF5
:103FB000697469616C697A65640D000040F20810EB
:103FC000C2F2000040787047F0B581B040F20815A9
:103FD000C2F200056878012804D10DF0E5FB32201B
:103FE00000F00CFC64200DF0C1FB4DF27770012253
:103FF000C0F604002A712C22C5E9020240F2011029
:1040000049F6B951C0F20100002600272961286055
:104010000DF016F9A0B12969D5E902200C1A202C5F
:1040200028BF2024104421460DF016FBD5E90310CB
:1040300027442144B6EBD72FE96001D18142E7D371
:104040000DF082FA04A049F6B9512C2201B0BDE866
:10405000F040FCF7B7B900BF5B456E67696E65411C
:104060007564696F5D20506C6179696E6720737447
:1040700061727420736F756E64202873697A653D70
:1040800025642C206F66667365743D2564290D0ACE
:104090000000000070B540F20815C2F20005287853
:1040A00001282DD1687858B3A86848B3D5E9030131
:1040B000884225D2002604E02644FF2E98BF814284
:1040C0001ED20DF0BDF8002808BF70BD2969D5E9E2
:1040D00002200C1A202C28BF2024104421460DF069
:1040E000BBFAD5E9031021448142E960E4D3E978C1
:1040F000012907D12979002918BF2C21E960DBE7C4
:1041000070BD00BF0021298002A0A970BDE87040E9
:10411000FCF75ABB5B456E67696E65417564696FF4
:104120005D20506C61796261636B2066696E6973B2
:104130006865640D000000000DF018BB2DE9F0412A
:1041400040F20816C2F200067078012804D1B17856
:10415000022908BFBDE8F08120B10DF025FB1E202B
:1041600000F04CFB4FF2D3085A20C0F202080DF0C9
:10417000FDFA4EF2A460C0F60100012106F108022A
:1041800031712C2182E8030140F20110C0F20210CB
:1041900000270024306000BF0DF052F8A0B1316953
:1041A000D6E902200D1A202D28BF202510442946CB
:1041B0000DF052FAD6E903102C442944B7EBD42F62
:1041C000F16001D18142E7D30DF0BEF902A0414672
:1041D000BDE8F041FCF7F6B85B456E67696E654176
:1041E0007564696F5D20506C6179696E67206163E9
:1041F00063656C20736F756E6420286C6F6F702C14
:104200002073697A653D2564290D0A0040F2081083
:10421000C2F200004178012918BF704780B5002123
:10422000018081700DF0C0FA50200DF09FFA02A0BD
:10423000BDE88040FCF7C8BA5B456E67696E6541B2
:104240007564696F5D20506C61796261636B207386
:10425000746F707065640D0072B600BFFEE70000F9
:104260002DE9F04F85B0049003201C469146884606
:10427000A0EB42004FF0000A4FF0010B01910CE05F
:10428000AAEB090001EB80000A30A9F10109CA4537
:104290000AF1010A0BF1020B6CDA049A0390A2EB0B
:1042A0000A00A8EB0901524487B296B289B2384697
:1042B00032460B4603F0B4FB5D4600BF204606F0D5
:1042C00059FF013DFAD108EB090081B23846324668
:1042D0000B4603F0A5FB5D46204606F04BFF013D73
:1042E000FAD1049AA8EB0A01A2EB09004A4487B26A
:1042F00096B289B2384632460B4603F091FBB9F1CB
:10430000FF3F08EB0A0023DD02904FEA490020EA54
:10431000E070451CA84600BF204606F02BFFB8F110
:104320000108F9D10298324681B238460B4603F0B3
:1043300077FBDDF80480B9F1000F04D4204606F0C5
:1043400019FF013DFAD10399002999D509E000BF71
:1043500081B2384632460B4603F062FB03990029CE
:104360008ED501EB8A000630CA450AF1010A0BF12D
:10437000020B92DB05B0BDE8F08F000070B5866DD2
:10438000044600F02BFB94F83510022928D105468D
:104390002068216C026822F016020260426922F055
:1043A0008002426109B9A16C19B1016821F00801CC
:1043B0000160016821F00101016000BF2068006810
:1043C000C00715D000F00AFB401B0628F6D32020BA
:1043D0006065032084F83500002184F8341070BD36
:1043E000802060650120002184F8341070BD00BF7A
:1043F000E06D3F2101FA00F0B060012084F8350043
:104400000020002184F8341070BD000090F83510B1
:10441000022909D1052180F835100068016821F0D2
:104420000101016000207047802141650120704733
:10443000F0B581B00021009140F24001C2F20001CC
:104440000B68D0E9166148F2B51537680822C1F645
:104450004E358A403A42A3FB05350CD003681C68F0
:10446000640708D51C6824F004041C60B260426D27
:1044700042F00102426501228A403A4208D00368B4
:104480005B691B0604D5B260426D42F002024265D0
:1044900004228A403A4208D003681B689B0704D56F
:1044A000B260426D42F00402426510228A403A42F4
:1044B00019D001680B681B0715D5B2600B680A6834
:1044C0005B0309D4D20509D40A6822F008020A6005
:1044D000016C29B907E000BF110341D4016C11B18F
:1044E000044688472046C26D202101FA02F33B4270
:1044F00043D001680F68FF063FD5B36090F8357070
:104500000B68052F1CD123F016030B604B6923F0B9
:1045100080034B61036C0BB9836C1BB10B6823F0F8
:1045200008030B603F219140B160012180F83510F4
:10453000016D0022002980F8342054D158E000BFDA
:104540000A685B0310D4D20512D40A6822F0100264
:104550000A60012180F83510002180F8341007E04E
:10456000816C0029BCD1BEE7110301D4416C00E08D
:10457000C16B11B1044688472046416DC1B3416DFE
:10458000C9072ED0052180F835100168AA0A0B68EA
:1045900023F001030B60009B0133934200931AD870
:1045A0000B68DB0717D0009B01339342009312D8AE
:1045B0000B68DB070FD0009B0133934200930AD8AE
:1045C0000B68DB0707D0009B01339342009302D8AE
:1045D0000B68DB07DFD1012180F83510002180F85E
:1045E0003410C16C21B101B0BDE8F040084700BFF4
:1045F00001B0F0BD2DE9F041044600F0EFF9ECB157
:104600000546022084F835000020216884F8340033
:10461000086820F00100086021680868C00711D010
:1046200000F0DCF9401B0528F6D9032520230320E0
:10463000636584F83550BDE8F08100BF0120BDE816
:10464000F08100BF086848F23F02CFF21002D4E9BF
:10465000013500EA020C04F10C0898E8C10143EAB4
:104660000C032B431843D4E9072E3043384310433F
:10467000626A40EA0E00042A40EA08031CD1206B5B
:10468000D4E90A2E40EA0E00184308604869BEF1DA
:10469000000F20F0030040EA020040F0040C11D0AB
:1046A000B8F5005F36D0B8F1000F45D1022A46D0E8
:1046B000012A3BD032B942E00B60486920F0070084
:1046C00040EA020C01F0F8004AF6AB221038CAF6B4
:1046D000AA22A0FB02231A094EF29C63C1F814C05F
:1046E000C0F601039A5C40F2FF335F284FF03F00B1
:1046F00021EA030100FA02F088BF0431C4E916126E
:104700008860002301250020636584F83550BDE8EA
:10471000F08100BF032AD5D8012540230120DFE81E
:1047200002F0030E030500BF82E700BFAEF1C070C8
:10473000B0FA80F0400904E0032A04D3C2D1CEF3DA
:1047400000600028BED0012540230120636584F865
:104750003550BDE8F081000090F834C0BCF1010F85
:1047600004BF0220704770B54FF0010C80F834C0D0
:10477000D0F858E090F835C0BCF1010F38D14FF0B7
:10478000020C80F835C04FF0000CC0F854C0D0F8CF
:1047900000C08468056CC06DDCF80060402C26F415
:1047A0008026CCF80060CCF804300B4604BF1346DA
:1047B0000A463F2101FA00F0CCF80830CCF80C2072
:1047C000CEF80800DCF8000040F01600CCF800003D
:1047D0002DB1DCF8000040F00800CCF80000DCF857
:1047E000000040F00100CCF80000002070BD00BFC8
:1047F000002180F83410022070BD0000B0B50446DE
:1048000000F0ECF8054640F23800C2F200000078F3
:10481000611C18BF044400BF00F0E0F8401BA04238
:10482000FAD3B0BD2DE9F04F83B000F1200200F1C2
:104830003E4741F60045009207F1FF77C4F20205BA
:1048400008224FEAB726A84208BF072200254FF0EA
:1048500000084FF00009072E38BF4FEAB722019237
:104860000AE000BF09F1010908F10208B9F1100FCF
:1048700005F1040500F0A2800F68012202FA09FE8A
:1048800017EA0E0AEED0D1F804C003220CF0030799
:104890007E1E02FA08F4012E6FEA040B12D8846817
:1048A000CE6804EA0B0406FA08F6344384604468D0
:1048B00024EA0E06CCF3001404FA09F426434660F9
:1048C00004E000BF032F01D103271EE0C6688C68F7
:1048D00006EA0B0604FA08F42643022FC66014D138
:1048E0006FF00302009E02EA590756F807C005F070
:1048F0001C040F220B69A2402CEA0202A3401A43B7
:10490000F251D1F804C00CF00307026807FA08F36B
:1049100002EA0B021A431CF4403F0260A2D00022BC
:1049200043F644030292C4F202031A6843F60044B9
:1049300042F480421A601A68C4F2010402F4804210
:104940000292029A29F003024FF6084C2244CFF655
:10495000FF7C52F80C3005F00C070F26BE40B34325
:10496000019E06FA07F73B4342F80C30A2684B68F9
:1049700042EA0A0743F60C4CDE0258BF22EA0A0755
:10498000A760C4F2010CDCF800209E0242EA0A078C
:1049900058BF22EA0A07CCF8007062689E0342EA18
:1049A0000A0758BF22EA0A0767602268DB0342EA67
:1049B0000A0758BF22EA0A07276053E703B0BDE899
:1049C000F08F00000069084018BF01207047000008
:1049D000002A08BF090481617047000043F68C601B
:1049E000C2F200000068704740F2380043F68C6164
:1049F000C2F20000C2F2000100780A6810440860A8
:104A00007047000080B543F60040C4F20200016820
:104A100041F400710160016841F480610160016846
:104A200041F480710160032000F086F80F2000F04F
:104A300005F800F027F8002080BD000070B540F2B6
:104A40003806C2F2000640F240013278C2F200019C
:104A50004FF47A730968B3FBF2F20446B1FBF2F14A
:104A6000084601F057F90F2C4FF0010508D838B966
:104A70004FF0FF3021460022002500F031F874602D
:104A8000284670BD82B0002043F640010190C4F278
:104A900002014A6842F480424A604A6802F4804255
:104AA0000192019A0090086840F080500860086800
:104AB00000F080500090009802B07047002848BF76
:104AC000704700F01F01012202FA01F11C2202EAE4
:104AD000D0004EF20012CEF200028150704700006A
:104AE00010B54EF60C5CCEF2000CDCF80030C3F3CF
:104AF000022E8EF00704042C28BF0424BEF1030309
:104B00004FF0FF3E0EFA04F438BF0023A143994052
:104B10000EFA03F39A43114300F00F0200F16043D1
:104B20000901043A03F564436244002848BF02F1D6
:104B30000C03197010BD00004EF60C51CEF20001AE
:104B40000A684FF6FF031A4060F30A2242F08060C1
:104B500040F0FD7008607047002804BF01207047D6
:104B60002DE9F04143F60808C4F202080446D8F8DB
:104B7000F8030D4600F00700814207D988F8F85382
:104B8000D8F8F80300F00700A84277D12068810721
:104B900017D5410705D5D8F8001041F4E051C8F801
:104BA0000010010705D5D8F8001041F46041C8F89D
:104BB0000010D8F80010A26821F0F0011143C8F8E5
:104BC0000010C00740D1D8F8F80300F00700854274
:104BD00007D288F8F853D8F8F80300F00700A84285
:104BE0004CD12068410707D5D8F80010E26821F4BD
:104BF000E0511143C8F80010000708D5D8F80000AC
:104C0000216920F4604040EAC100C8F8000000F0CB
:104C10007DF8D8F800104AF60C22C1F30311C0F653
:104C20000102515C40F2400220FA01F140F23C00E6
:104C3000C2F200000068C2F200021160FFF7FEFE3F
:104C40000020BDE8F08100BF6068811E022907D204
:104C500058F8081C89015CBF0120BDE8F08111E013
:104C6000012807D158F8081C89035CBF0120BDE862
:104C7000F08107E058F8081C890703D40120BDE83B
:104C8000F08100BFD8F8001021F003010843C8F8F4
:104C90000000FFF7A3FE064641F28837D8F800006F
:104CA000616800F00C00B0EB810F8CD0FFF796FE2E
:104CB000801BB842F2D90320BDE8F08140F24000E9
:104CC00043F60801C2F20000C4F20201006809685C
:104CD0004AF61C22C1F38221C0F60102515CC84091
:104CE0007047000040F2400043F60801C2F20000A5
:104CF000C4F20201006809684AF61C22C1F342317D
:104D0000C0F60102515CC8407047000010B543F680
:104D10000404C4F202046168C1F3810142F200405C
:104D2000C0F2F400DFE801F002040A0210BD00BF87
:104D300041F20020C0F27A0010BD00BF216801F0EE
:104D40003F02216823684902C3F3881106D4A1FBFE
:104D500000010023FBF7BDFA07E000BF41F200208D
:104D6000C0F27A004843B0FBF2F021680222C1F39E
:104D7000014102EB4101B0FBF1F010BD002804BF7E
:104D8000012070472DE9F04182B00446007843F6D7
:104D90000006C007C4F202060CD0B06800F00C0098
:104DA000042840F081803068800303D560680028C3
:104DB00000F06881207880071BD5B06810F00C0FD8
:104DC00009D0B06800F00C00082840F087807068B7
:104DD000400200F183803068800703D5E068012835
:104DE00040F050813068216920F0F80040EAC100AD
:104DF00030602078000713D4207840072AD4A569B2
:104E0000002D00F03A81B06800F00C00082840F056
:104E1000A580012D40F00E81012002B0BDE8F08197
:104E20006069002800F082800020C4F24720012140
:104E3000C0F8801EFFF7D2FD054600BF706F8007E7
:104E4000DAD4FFF7CBFD401B0228F7D9032002B0CC
:104E5000BDE8F081306C5FEAC0080AD40020019000
:104E6000306C40F080503064306C00F08050019025
:104E7000019847F20007C4F200073868C00547D41C
:104E8000386840F480703860FFF7A8FD054600BF21
:104E90003868C0053CD4FFF7A1FD401B0228F7D9B4
:104EA000032002B0BDE8F081B06800F00C000828D3
:104EB00003D1706840023FF576AF61683068B1F5A4
:104EC000803F07D0B1F5A02F40F09A8040F48020B9
:104ED0003060306840F4803030609AE0E06800284C
:104EE00040F20000C4F247205CD001210160FFF7CE
:104EF00075FD0546306880073FF574AFFFF76EFD1E
:104F0000401B0228F6D9032002B0BDE8F08100BFA3
:104F1000A168306F012905D0052955D140F0040062
:104F20003067306F40F00100306756E00020C4F277
:104F300047200021C0F8801EFFF750FD054600BF46
:104F4000706F80077FF558AFFFF748FD401B0228C0
:104F5000F6D9032002B0BDE8F08100BF0027C4F2FB
:104F6000472700203866FFF739FD022D05460DD191
:104F70003068800140F18A80FFF730FD401B022835
:104F80004FF00300F4D902B0BDE8F0813068800131
:104F900073D5FFF723FD401B02284FF00300F5D91E
:104FA000F1E700BF00210160FFF718FD054600BFD3
:104FB000306880077FF51DAFFFF710FD401B02280A
:104FC0004FF00300F4D9DEE720F001003067306FC6
:104FD000002920F0040030677AD0FFF7FFFC054677
:104FE00041F28837306F800700F18480FFF7F6FCCC
:104FF000401BB842F6D9032002B0BDE8F08100BFE3
:1050000020F4803030603068002920F48020306047
:105010007AD0FFF7E3FC0546306880033FF5CAAE5F
:10502000FFF7DCFC401B6428F6D9032002B0BDE882
:10503000F08100BF7068E16900F480028A4221D1EA
:10504000216A00F03F028A421CD147F6C071626AB1
:105050000140B1EB821F15D1A16A4FF6FF73C9035E
:10506000994300F44032A1F580318A420AD1E16AC5
:1050700000F07060B0EB016F04D1002002B0BDE819
:10508000F08100BF012002B0BDE8F08104F11C05F1
:105090002FCD084340EA8210D9034FF6FF729143A7
:1050A000A1F5803140EA0560084370600120386650
:1050B000FFF794FC044600BF30688001DDD4FFF7A1
:1050C0008DFC001B02284FF00300F5D95BE700BF01
:1050D000FFF784FC054641F2883700BF306F800738
:1050E00008D5FFF77BFC401BB8424FF00300F5D911
:1050F00049E700BFB8F1000F3FF581AE306C20F0FA
:10510000805030647BE600BFFFF768FC054600BFB7
:10511000306880037FF54EAEFFF760FC401B6428CB
:105120004FF00300F4D92EE710B584B040F24001EF
:10513000C2F20001096841F6F112C0F27652A1FBF9
:105140000212510A642251430291029904460391CA
:105150000168486820F0200048604868000607D4CD
:105160004868400637D44868800768D49CE000BF90
:1051700040F21950C0F601006064039810B3039820
:105180000138039094F8510007281FD00398C8B144
:1051900003980138039094F85100072816D003981B
:1051A00080B103980138039094F8510007280DD07E
:1051B000039838B103980138039094F851000728F8
:1051C000DBD103E0606D40F0400060650298039021
:1051D00048684006C7D540F28540C0F6010020640B
:1051E000039818B303980138039094F851000728E6
:1051F00020D00398D0B103980138039094F851005F
:10520000072817D0039888B103980138039094F8C1
:10521000510007280ED0039840B10398013803903D
:1052200094F851000728DBD104E000BF606D40F026
:1052300040006065029803904868800734D5A06CF0
:1052400090B300210165FFF799F800281CBF4020AA
:1052500060652168486820F0020048600398F8B152
:10526000039801380390886880071DD40398B8B16B
:105270000398013803908868800715D4039878B1A3
:10528000039801380390886880070DD4039838B1DB
:1052900003980138039088688007DFD504E000BFD9
:1052A000606D40F0400060654868C00712D0E06C57
:1052B00080B100210165FFF761F800281CBF402084
:1052C00060652168086820F040000860486820F0A8
:1052D000010048600023E387E386606D4FF0010C16
:1052E00040284FF001001CBF636500200193CA688D
:1052F00001928A680192019A01938968019101994A
:1053000084F851C004B010BD7047000090F85100FF
:1053100070470000B0B582B001684A688B6803F03E
:105320004105012D08D112F0400505D0016C02B0F5
:10533000BDE8B040084700BF9D0707D512F08005C3
:1053400004D0416C02B0BDE8B040084713F4B07F10
:1053500018BF12F0200501D102B0B0BD5D0618D50E
:1053600090F85150032D09D100200190C868019098
:1053700088680190019802B0B0BD00BF456D45F04E
:105380000405456500250195CD6801958D68019559
:10539000019D9D0604D4DB0511D4436DDBB9DBE729
:1053A000456D45F001054565002501958D68019520
:1053B0000D6825F040050D60019DDB05EDD5436DC1
:1053C00043F008034365002301938B680193019B1D
:1053D000436D002BC0D04B68920723F0E0034B6075
:1053E0004FF0010380F8513026D04A6840F235541E
:1053F00022F003024A60C16CC0F6010459B10546AF
:1054000008460C65FFF702F80146284619B1416DC0
:1054100041F040014165816C00299DD00C65044636
:105420000846FEF7F3FF002896D0606D40F040007C
:10543000606502B0B0BD00BF02B0BDE8B040FFF78C
:1054400063BF000070B528B1416A29B10021016134
:10545000142106E0012070BD4168B1F5827F02D0C1
:105460001C21002242500026866290F8511029B972
:1054700080F85060054600F03DF82846022180F88B
:10548000511090E82E0002F482720C6803F4044379
:1054900024F040040C601A4405F4006305691A44C2
:1054A00005F0020345691A4405F001038569C469E2
:1054B0001A4405F400731A4404F03803046A1A44C9
:1054C00004F08003846A1A4304F400531A430A6008
:1054D000436A042202EA154203F010031A444A60A8
:1054E000CA6922F40062CA610121466580F8511040
:1054F000304670BD70B586B0016843F60002C4F254
:10550000000200269142CDE90466CDE902660196CB
:1055100060D043F60040C4F2000081422ED043F236
:105520000000C4F20100814251D1002043F6300155
:105530000090C4F202014A6942F480524A614A6909
:1055400002F480520092009A00900A6842F0010230
:105550000A60096801F0010100910099E0210191C0
:105560000221CDE90210032004900520059040F2AD
:105570000040C4F20200A0F5806025E0002043F660
:1055800030010090C4F202010A6942F400420A614B
:105590000A6902F400420092009A00900A6842F000
:1055A00002020A60096801F00201009100993821A5
:1055B00001910221CDE902100320049006200590FC
:1055C00040F20040C4F2020001A9FFF72BF906B037
:1055D00070BD00BF43F630040096C4F202040546D5
:1055E000206901A940F480402061206900F48040D6
:1055F000009000980096206840F00200206020682B
:1056000000F00200009000984FF4604001900220EA
:10561000CDE90206032004900520059040F20040E9
:10562000C4F20200FFF7FEF804F5215042F6C85418
:10563000C2F20004C4E900064FF4803040214FF468
:105640008062C4E908062046C4E90216C4E90426BB
:10565000C4E90666FEF7CEFF002818BFFEF7FCFD82
:10566000242000210022AC64A563FFF739FA24202E
:10567000FFF724FA06B070BD2DE9F04184B01D4655
:1056800016460F460446FFF7A9F994F85110012970
:105690000ED18046002F4FF0010018BF002E03D11D
:1056A00004B0BDE8F08100BF94F85000012803D198
:1056B000022004B0BDE8F081012084F850000320EE
:1056C000002184F8510061652763A686E686A16300
:1056D000A187E187A0682164B0F5004F206861646C
:1056E00007D1016821F040010160016841F4804167
:1056F00001600168490603D4016841F0400101607E
:105700006168731EE268B1FA81F1B3FA83F3490963
:105710005B09B2F5006F41EA030139D131B137F8C5
:10572000021BC1602763E08E0138E086E08E00280E
:1057300070D0681C0BD11AE0216B31F8022BC260CB
:105740002163E08E0138E086E08E002862D0206878
:1057500081688907F0D4FFF741F9A0EB0800A8425F
:10576000F2D338E0FFF73AF9E08E002852D02068F3
:1057700081688907F6D5216B31F8022BC26021635D
:10578000E08E0138E086E08E0028F0D142E000BFD4
:1057900039B139780173206B01302063E08E013814
:1057A000E086E08EB0B3681C0BD123E0216B097852
:1057B0000173206B01302063E08E0138E086E08EBB
:1057C00040B3206881688907F0D4FFF707F9A0EBA0
:1057D0000800A842F3D3012084F85100002084F887
:1057E0005000032004B0BDE8F08100BFFFF7F6F8D9
:1057F000E08E78B1206881688907F7D5216B097838
:105800000173206B01302063E08E0138E086E08E6A
:105810000028EFD12046022101222B46CDF800803E
:105820000AF028FFE0B1606D40F0200060652020A4
:105830006065A06838B9002002902068C1680291B4
:10584000806802900298012084F85100002084F8BA
:105850005000606D002818BF012004B0BDE8F08141
:1058600040F24000C2F20000006849F68171C1F2C6
:105870005E61A0FB0101480D4FF47A71484303902B
:105880006068B0F5827F0BD12046802100222B4634
:10589000CDF800800AF0EEFE0028C4D1C9E700BFB1
:1058A00003980028C5D003980138039020688168C8
:1058B0000906BED503990029BBD00399013903918C
:1058C00081680906B5D503990029B2D00399013939
:1058D000039181680906ACD503990029A9D00399E1
:1058E0000139039180680006DAD4A2E72DE9F0437C
:1058F00083B01E4615460F460446FFF76FF894F82E
:1059000051108146012909D1002F4FF0010018BF25
:10591000002D0FD103B0BDE8F08300BF6068B0F583
:10592000827F0DD104294FF00200F3D1A168002934
:10593000EAD0EFE7002EEDD094F85000012803D113
:10594000022003B0BDE8F083012084F8500094F8F1
:105950005100002104281CBF052084F85100616516
:10596000A563E687A6872763E6862068A686216466
:1059700061640168490603D4016841F04001016097
:105980006168731EE268B1FA81F1B3FA83F3DDF85E
:10599000288049095B09B2F5006F41EA030165D12E
:1059A00031B137F8021BC1602763E08E0138E08611
:1059B000012518F1010032D102E000BFFFF70EF817
:1059C000E08E18B9E08F002800F0B8802068816868
:1059D00089070CD5E18E51B1012D08D1216B00252D
:1059E00031F8022BC2602163E18E0139E1868168C2
:1059F000C907E3D0E18F0029E0D0C068A16B012581
:105A000021F8020BA163E08F0138E087D6E700BFE1
:105A1000FEF7E4FFA0EB0900404580F0A580E08E92
:105A200018B9E08F002800F0898020688168890714
:105A30000CD5E18E51B1012D08D1216B002531F833
:105A4000022BC2602163E18E0139E1868168C907BA
:105A5000DED0E18F0029DBD0C068A16B012521F8E1
:105A6000020BA163E08F0138E087D1E739B13978C3
:105A70000173206B01302063E08E0138E086012540
:105A800018F1010032D101E0FEF7A8FFE08E10B955
:105A9000E08F002852D02068816889070ED5E18EFA
:105AA00061B1012D0AD1216B002509780173216BA9
:105AB000206801312163E18E0139E1868168C907DF
:105AC000E2D0E18F0029DFD0C068A16B012508700A
:105AD000A06B0130A063E08F0138E087D4E700BFFE
